{
  "transactions": [
    {
      "hash": "0xbd7435a8707095f23361948ae7e258843e8d47480bb39e568657abead47f8a4d",
      "transactionType": "CALL",
      "contractName": null,
      "contractAddress": "0xe1cde8a9c3cb7455bbeefb86003fc8c959776875",
      "function": "mint(address,uint256)",
      "arguments": [
        "0x66717Acbfde91e3559C498feeA7e8381060bbfe8",
        "1000000000"
      ],
      "transaction": {
        "from": "0x66717acbfde91e3559c498feea7e8381060bbfe8",
        "to": "0xe1cde8a9c3cb7455bbeefb86003fc8c959776875",
        "gas": "0x8a9c798",
        "value": "0x0",
        "input": "0x40c10f1900000000000000000000000066717acbfde91e3559c498feea7e8381060bbfe8000000000000000000000000000000000000000000000000000000003b9aca00",
        "nonce": "0x6",
        "chainId": "0x138b"
      },
      "additionalContracts": [],
      "isFixedGasLimit": false
    }
  ],
  "receipts": [
    {
      "status": "0x1",
      "cumulativeGasUsed": "0x1cd81045",
      "logs": [
        {
          "address": "0xe1cde8a9c3cb7455bbeefb86003fc8c959776875",
          "topics": [
            "0xddf252ad1be2c89b69c2b068fc378daa952ba7f163c4a11628f55a4df523b3ef",
            "0x0000000000000000000000000000000000000000000000000000000000000000",
            "0x00000000000000000000000066717acbfde91e3559c498feea7e8381060bbfe8"
          ],
          "data": "0x000000000000000000000000000000000000000000000000000000003b9aca00",
          "blockHash": "0xa77c743036c8e85957e0005a9d008fc288f2e7de89008dfd97bcd98463c9dc01",
          "blockNumber": "0x122b0b2",
          "transactionHash": "0xbd7435a8707095f23361948ae7e258843e8d47480bb39e568657abead47f8a4d",
          "transactionIndex": "0x4",
          "logIndex": "0x3",
          "removed": false
        }
      ],
      "logsBloom": "0x00000000000020000000000000000000000000000000000000000000000000000000000000000000000000000000000000000000000000000000000000000000000000000000000000001008000000000000000000000000000000000000000000000000020000000000000000000800000000000000004000000010000000000000000000000000000000000000000000000000000000000000000000000000000000000000000000000000000000000000000000000000000004000000000000000002000000000000000000000000000000000000000000000000000020000000000000000000000000000000000000008000800000000000000000000000",
      "type": "0x0",
      "transactionHash": "0xbd7435a8707095f23361948ae7e258843e8d47480bb39e568657abead47f8a4d",
      "transactionIndex": "0x4",
      "blockHash": "0xa77c743036c8e85957e0005a9d008fc288f2e7de89008dfd97bcd98463c9dc01",
      "blockNumber": "0x122b0b2",
      "gasUsed": "0x58b64ef",
      "effectiveGasPrice": "0x1312d00",
      "from": "0x66717acbfde91e3559c498feea7e8381060bbfe8",
      "to": "0xe1cde8a9c3cb7455bbeefb86003fc8c959776875",
      "contractAddress": null,
      "l1Fee": "0x3268afc2def2",
      "l1FeeScalar": "0.01",
      "l1GasPrice": "0x33d5b799",
      "l1GasUsed": "0x998",
      "tokenRatio": "0xa23"
    }
  ],
  "libraries": [],
  "pending": [],
  "returns": {},
  "timestamp": 1739646021,
  "chain": 5003,
  "commit": "3fccea8"
}