{
  "transactions": [
    {
      "hash": "0x19ac075a21eee1f5481c82b4b5fb3f99b5a6a2d75faab5a6e962fa7913e92697",
      "transactionType": "CALL",
      "contractName": null,
      "contractAddress": "0xe1cde8a9c3cb7455bbeefb86003fc8c959776875",
      "function": "mint(address,uint256)",
      "arguments": [
        "0x66717Acbfde91e3559C498feeA7e8381060bbfe8",
        "1000000000"
      ],
      "transaction": {
        "from": "0x66717acbfde91e3559c498feea7e8381060bbfe8",
        "to": "0xe1cde8a9c3cb7455bbeefb86003fc8c959776875",
        "gas": "0x8ae7320",
        "value": "0x0",
        "input": "0x40c10f1900000000000000000000000066717acbfde91e3559c498feea7e8381060bbfe8000000000000000000000000000000000000000000000000000000003b9aca00",
        "nonce": "0x5",
        "chainId": "0x138b"
      },
      "additionalContracts": [],
      "isFixedGasLimit": false
    }
  ],
  "receipts": [
    {
      "status": "0x1",
      "cumulativeGasUsed": "0x59179e1",
      "logs": [
        {
          "address": "0xe1cde8a9c3cb7455bbeefb86003fc8c959776875",
          "topics": [
            "0xddf252ad1be2c89b69c2b068fc378daa952ba7f163c4a11628f55a4df523b3ef",
            "0x0000000000000000000000000000000000000000000000000000000000000000",
            "0x00000000000000000000000066717acbfde91e3559c498feea7e8381060bbfe8"
          ],
          "data": "0x000000000000000000000000000000000000000000000000000000003b9aca00",
          "blockHash": "0x04b4ee264c7e07a5e8e2c31ee18eaa4a9700a3dcc96f3a6e3fb5e67c305ce767",
          "blockNumber": "0x122b08f",
          "transactionHash": "0x19ac075a21eee1f5481c82b4b5fb3f99b5a6a2d75faab5a6e962fa7913e92697",
          "transactionIndex": "0x1",
          "logIndex": "0x0",
          "removed": false
        }
      ],
      "logsBloom": "0x00000000000020000000000000000000000000000000000000000000000000000000000000000000000000000000000000000000000000000000000000000000000000000000000000001008000000000000000000000000000000000000000000000000020000000000000000000800000000000000004000000010000000000000000000000000000000000000000000000000000000000000000000000000000000000000000000000000000000000000000000000000000004000000000000000002000000000000000000000000000000000000000000000000000020000000000000000000000000000000000000008000800000000000000000000000",
      "type": "0x0",
      "transactionHash": "0x19ac075a21eee1f5481c82b4b5fb3f99b5a6a2d75faab5a6e962fa7913e92697",
      "transactionIndex": "0x1",
      "blockHash": "0x04b4ee264c7e07a5e8e2c31ee18eaa4a9700a3dcc96f3a6e3fb5e67c305ce767",
      "blockNumber": "0x122b08f",
      "gasUsed": "0x5907ff8",
      "effectiveGasPrice": "0x1312d00",
      "from": "0x66717acbfde91e3559c498feea7e8381060bbfe8",
      "to": "0xe1cde8a9c3cb7455bbeefb86003fc8c959776875",
      "contractAddress": null,
      "l1Fee": "0x387a3f9b459f",
      "l1FeeScalar": "0.01",
      "l1GasPrice": "0x3a133963",
      "l1GasUsed": "0x998",
      "tokenRatio": "0xa23"
    }
  ],
  "libraries": [],
  "pending": [],
  "returns": {},
  "timestamp": 1739645951,
  "chain": 5003,
  "commit": "3fccea8"
}