{
  "transactions": [
    {
      "hash": "0xbae30ecebbf88181b0ececb22b10007a1c56c91604eeac6cf1b4dda94e78a8ed",
      "transactionType": "CALL",
      "contractName": "MockMANTLE",
      "contractAddress": "0xe1cde8a9c3cb7455bbeefb86003fc8c959776875",
      "function": "mint(address,uint256)",
      "arguments": [
        "0x66717Acbfde91e3559C498feeA7e8381060bbfe8",
        "100000000000"
      ],
      "transaction": {
        "from": "0x66717acbfde91e3559c498feea7e8381060bbfe8",
        "to": "0xe1cde8a9c3cb7455bbeefb86003fc8c959776875",
        "gas": "0x8ca4521",
        "value": "0x0",
        "input": "0x40c10f1900000000000000000000000066717acbfde91e3559c498feea7e8381060bbfe8000000000000000000000000000000000000000000000000000000174876e800",
        "nonce": "0x1e",
        "chainId": "0x138b"
      },
      "additionalContracts": [],
      "isFixedGasLimit": false
    }
  ],
  "receipts": [
    {
      "status": "0x1",
      "cumulativeGasUsed": "0x59e7de0",
      "logs": [
        {
          "address": "0xe1cde8a9c3cb7455bbeefb86003fc8c959776875",
          "topics": [
            "0xddf252ad1be2c89b69c2b068fc378daa952ba7f163c4a11628f55a4df523b3ef",
            "0x0000000000000000000000000000000000000000000000000000000000000000",
            "0x00000000000000000000000066717acbfde91e3559c498feea7e8381060bbfe8"
          ],
          "data": "0x000000000000000000000000000000000000000000000000000000174876e800",
          "blockHash": "0x07d5891f1e8cfb57c40bc69dbf8a023b317aa75568432dd9e9f94859e43a0c10",
          "blockNumber": "0x122c700",
          "transactionHash": "0xbae30ecebbf88181b0ececb22b10007a1c56c91604eeac6cf1b4dda94e78a8ed",
          "transactionIndex": "0x1",
          "logIndex": "0x0",
          "removed": false
        }
      ],
      "logsBloom": "0x00000000000020000000000000000000000000000000000000000000000000000000000000000000000000000000000000000000000000000000000000000000000000000000000000001008000000000000000000000000000000000000000000000000020000000000000000000800000000000000004000000010000000000000000000000000000000000000000000000000000000000000000000000000000000000000000000000000000000000000000000000000000004000000000000000002000000000000000000000000000000000000000000000000000020000000000000000000000000000000000000008000800000000000000000000000",
      "type": "0x0",
      "transactionHash": "0xbae30ecebbf88181b0ececb22b10007a1c56c91604eeac6cf1b4dda94e78a8ed",
      "transactionIndex": "0x1",
      "blockHash": "0x07d5891f1e8cfb57c40bc69dbf8a023b317aa75568432dd9e9f94859e43a0c10",
      "blockNumber": "0x122c700",
      "gasUsed": "0x59dc6cf",
      "effectiveGasPrice": "0x1312d00",
      "from": "0x66717acbfde91e3559c498feea7e8381060bbfe8",
      "to": "0xe1cde8a9c3cb7455bbeefb86003fc8c959776875",
      "contractAddress": null,
      "l1Fee": "0x3ee630f3d444",
      "l1FeeScalar": "0.01",
      "l1GasPrice": "0x4004be82",
      "l1GasUsed": "0x9a4",
      "tokenRatio": "0xa31"
    }
  ],
  "libraries": [],
  "pending": [],
  "returns": {},
  "timestamp": 1739657442,
  "chain": 5003,
  "commit": "55b09cb"
}