{
  "transactions": [
    {
      "hash": "0xc1a3513e5961df883d4d67560c2522c397c1b79e6ca32edfb040a293fba9ed27",
      "transactionType": "CALL",
      "contractName": null,
      "contractAddress": "0xe1cde8a9c3cb7455bbeefb86003fc8c959776875",
      "function": "mint(address,uint256)",
      "arguments": [
        "0x66717Acbfde91e3559C498feeA7e8381060bbfe8",
        "1000000000"
      ],
      "transaction": {
        "from": "0x66717acbfde91e3559c498feea7e8381060bbfe8",
        "to": "0xe1cde8a9c3cb7455bbeefb86003fc8c959776875",
        "gas": "0x8b7ac9a",
        "value": "0x0",
        "input": "0x40c10f1900000000000000000000000066717acbfde91e3559c498feea7e8381060bbfe8000000000000000000000000000000000000000000000000000000003b9aca00",
        "nonce": "0x7",
        "chainId": "0x138b"
      },
      "additionalContracts": [],
      "isFixedGasLimit": false
    }
  ],
  "receipts": [
    {
      "status": "0x1",
      "cumulativeGasUsed": "0x5964027",
      "logs": [
        {
          "address": "0xe1cde8a9c3cb7455bbeefb86003fc8c959776875",
          "topics": [
            "0xddf252ad1be2c89b69c2b068fc378daa952ba7f163c4a11628f55a4df523b3ef",
            "0x0000000000000000000000000000000000000000000000000000000000000000",
            "0x00000000000000000000000066717acbfde91e3559c498feea7e8381060bbfe8"
          ],
          "data": "0x000000000000000000000000000000000000000000000000000000003b9aca00",
          "blockHash": "0xd6050ff5eafefd1c0df76f84f72a9adf7ccd7770f7e53f21efc62207b3a37997",
          "blockNumber": "0x122b274",
          "transactionHash": "0xc1a3513e5961df883d4d67560c2522c397c1b79e6ca32edfb040a293fba9ed27",
          "transactionIndex": "0x1",
          "logIndex": "0x0",
          "removed": false
        }
      ],
      "logsBloom": "0x00000000000020000000000000000000000000000000000000000000000000000000000000000000000000000000000000000000000000000000000000000000000000000000000000001008000000000000000000000000000000000000000000000000020000000000000000000800000000000000004000000010000000000000000000000000000000000000000000000000000000000000000000000000000000000000000000000000000000000000000000000000000004000000000000000002000000000000000000000000000000000000000000000000000020000000000000000000000000000000000000008000800000000000000000000000",
      "type": "0x0",
      "transactionHash": "0xc1a3513e5961df883d4d67560c2522c397c1b79e6ca32edfb040a293fba9ed27",
      "transactionIndex": "0x1",
      "blockHash": "0xd6050ff5eafefd1c0df76f84f72a9adf7ccd7770f7e53f21efc62207b3a37997",
      "blockNumber": "0x122b274",
      "gasUsed": "0x5956846",
      "effectiveGasPrice": "0x1312d00",
      "from": "0x66717acbfde91e3559c498feea7e8381060bbfe8",
      "to": "0xe1cde8a9c3cb7455bbeefb86003fc8c959776875",
      "contractAddress": null,
      "l1Fee": "0x38a78b459509",
      "l1FeeScalar": "0.01",
      "l1GasPrice": "0x3a0e416f",
      "l1GasUsed": "0x998",
      "tokenRatio": "0xa2c"
    }
  ],
  "libraries": [],
  "pending": [],
  "returns": {},
  "timestamp": 1739646921,
  "chain": 5003,
  "commit": "3fccea8"
}